:020000040000FA
:020000001028C6
:040002000034003492
:08000800F0000308F1000A08F2
:10001000F20072088A0071088300F00E700E090069
:10002000122011286030831603138F0083120313EC
:10003000870103179E018316031387010715831297
:10004000FF308316031392004C3083120313970082
:100050006430831203139500831203138C10043051
:10006000831203139200831203138C1C35280000A3
:080070008316031307110800B9
:02400E00E4309C
:084200000000010002000300B0
:00000001FF
