:020000040000FA
:020000000C28CA
:040002000034003492
:08000800F0000308F10071088B
:080010008300F00E700E0900E0
:0800180086018501861705141D
:1000200085158316573062008601850186170514F1
:1000300085140515851583127F3086004A309F0090
:10004000AC309F007F3086001F1B01301F1F003027
:10005000372086002428A20181010108FA3A031DF5
:100060002D28A20A7D302206031D2C2808008207B5
:1000700010347C34223428344C34093401341C3498
:0400800000340C3408
:02400E00613F10
:084200000000010002000300B0
:00000001FF
