:020000040000FA
:0800000000008A110A12122807
:08000800F0000308F1000A08F2
:10001000F20072088A0071088300F00E700E090069
:040020000034003474
:0C002400000083120313A5012F20003000
:1000300083120313A400831203138600003083127B
:100040000313860002308A110A12512004308312F1
:100050000313860002308A110A1251201E288312CF
:100060000313A4018312031386018316FB30860059
:0400700083120800EF
:0C00740083120313A000000000008312A0
:100080000313A00B3D28080083120313A100FF30C7
:100090008A110A123A203A2083120313A10B47282F
:1000A000080083120313A200FF308A110A124420B1
:0C00B000442083120313A20B5428080004
:02400E00323F3F
:00000001FF
