:020000040000FA
:020000000E28C8
:040002000034003492
:08000800A00003088312A1000F
:0C001000831221088300A00E200E0900BE
:04001C0083128601C4
:100020008501851583168601850185158312593052
:100030009F005730620007308500A601A701AA0182
:10004000A901A801F730AB001F151F1925281E08AC
:10005000A600A600AA0A2608A2006430A602031C75
:1000600003192A282208A600A90A2608A2000A3095
:10007000A602031C031934282208A600A80A260891
:10008000A2000130A602031C03193E282208A60084
:10009000AA03A903A8032A08A7000030A600290E76
:1000A000F039A60028080F39A607011D552806308B
:1000B000850026080F398820860001195D287F30C9
:1000C0008600011D612805308500260E0F39882025
:1000D0008600011969287F308600011D6D280330D4
:1000E0008500270888208600011974287F30860043
:1000F000AB0B55281D28A40181010108FA3A031D04
:100100007D28A40A7D302406031D7C2808001D28B4
:10011000820740347C34223428341C3409340134BE
:060120004C3400340C34E5
:02400E00313F40
:00000001FF
