:060000000A128A11122809
:10000800FE00030EF0000408F1000A08F200831253
:1000180003137F08F3000A128A1100290A128A11B1
:10002800152883010A128A111928F8010A128A115F
:10003800BA200A128A113228003083120313861854
:1000480001300A128A11DF200A128A11003A0319B4
:100058008528831203130615F801F80A01300A12DD
:100068008A1195200A128A11333083120313A200D1
:10007800BC30A1001030A000A00B4028A10B4028E4
:10008800A20B402802300A128A1195200A128A11FE
:10009800333083120313A200BC30A1001030A0003B
:1000A800A00B5428A10B5428A20B542803300A1281
:1000B8008A1195200A128A11333083120313A20081
:1000C800BC30A1001030A000A00B6828A10B682844
:1000D800A20B682804300A128A1195200A128A1184
:1000E800333083120313A200BC30A1001030A000EB
:1000F800A00B7C28A10B7C28A20B7C28F8080319EC
:1001080020288312031306110030861801300A12C2
:100118008A11DF200A128A110038031D3228F801DB
:100128003228F4007408013A031D9F2820308312F6
:100138000313950008007408023A031DA8284030EC
:1001480083120313950008007408033A031DB128AD
:10015800603083120313950008007408043A031DE5
:1001680008007F30831203139500080006308316B9
:1001780003139F0087018312031387011710971039
:10018800171597151D109D101D159D157E3083168A
:10019800031392008312031392011214921495010F
:1001A80012154130F500EE30F400F40BD928F50BA8
:1001B800D92800000800F600F701F6080319F1280D
:1001C800FE280730F5007D30F400F40BE928F50B24
:1001D800E9280130F4007408F707F608031DF82829
:1001E8000A307702031CE52877080A3A031DFE281F
:1001F80001300800003008008B1A0B1D05290B116F
:1002080081017308FF0072088A0071088400700E6B
:080218008300FE0E7E0E0900BA
:02400E0072FF3F
:00000001FF
