:020000040000FA
:020000000C28CA
:040002000034003492
:08000800F0000308F10071088B
:080010008300F00E700E0900E0
:0800180007309F00BE200130FB
:10002000DC20A9015020333066208020A9008020E8
:10003000AA008020AB008020AC008020AD00802092
:10004000AE008020AF008020B0008020B1002830BA
:100050002906031D0000A92013215020CC30662062
:10006000000000004430662000000000851C362897
:100070005321532153215020CC306620BE306620BE
:100080008020A3008020A40050205830EB20230EB5
:100090000F39B200240EF039B20732081A212C2889
:1000A00083168514831200000000831285108316C6
:1000B000851083125F306A21831685148312851898
:1000C0005F285F306A21000000000800A1000830AE
:1000D000A200831285108316851083120000000091
:1000E00000000000A10C0318851408306A21831653
:1000F0008514831200000000A20B6928000008008C
:10010000A1010830A2008312851083168510831286
:100110000000000000000000831685148312000018
:100120000000000000000314851C03100000A10C57
:1001300008306A21A20B8328210808008207303486
:10014000313432343334343435343634373438346B
:1001500039344430EB206530EB207630EB206930C9
:10016000EB206330EB206530EB202030EB204F306C
:0C017000EB204B30EB2053215321080002
:04017C00831683164D
:10018000031386018312552103308600F82059217C
:1001900003308600F8205D2103308600F8205D21C1
:1001A00002308600F8202830DC200630DC200C30BD
:1001B000DC200130DC2008008612B400340E0F3938
:1001C0008600F82034080F398600F820FC2008004B
:1001D000C030DC200800B400340E0F3986008616CB
:1001E000F82034080F3986008616F820FC20080015
:1001F0000616000006120800861283168615831262
:10020000061706168619022906120613831686118A
:1002100083120800B500861206138430DC2086168F
:10022000FC20350808000230DC20FC2008000130EA
:10023000DC200800BB00B701B801B901B90A3B08CE
:10024000B4006430BB02031C03191E293408BB0030
:10025000B80A3B08B4000A30BB02031C0319282962
:100260003408BB00B70A0130BB02031C0319322952
:10027000B903B803B70339080F394821EB20380810
:100280000F394821EB2037080F394821EB200800AF
:100290008207303431343234333434343534363404
:1002A000373438343934FF305E291E305E290F3040
:1002B0005E2905305E2903305E290130BC00C7305D
:1002C000BD000130BE00BD0B6629BE0B6329BC0B0F
:1002D0005F290034BF0000000000BF0B6B2908003D
:02400E00613F10
:084200000000010002000300B0
:00000001FF
