:020000040000FA
:020000000E28C8
:040002000034003492
:08000800F0000308F1000B11E8
:0C001000452071088300F00E700E0900FE
:04001C0007309F000A
:100020008601F70181018B01640083164030810055
:10003000640086018312A0308B000030F60030206F
:1000400030200130F600302030200230F600302021
:1000500030200330F600302030201D28FF303928B2
:100060001E3039280A30392805303928023039281D
:100070000130F300C730F4000130F500F40B4128E3
:10008000F50B3E28F30B3A280034F20F4D28760882
:100090005320F2000F30F7004E28F7017708831243
:1000A00003138600080082070134E634F034FE347E
:02400E00613F10
:084200000000010002000300B0
:00000001FF
