:100000000A128A11FC2F00308A000408840A820731
:1000100000345434683469347334203469347334AC
:1000200020346134203453347434723469346E347F
:0C0030006734203431343234333400346F
:100EC600F000831203130C1E642F700899000800AB
:100ED600831203138C1E6B2F1A08F0007008F100A2
:100EE60071080800F30073080A128A1187270A128C
:100EF6008A110D300A128A1163270A128A110A30E2
:100F06000A128A1163270800F2000130F100710805
:100F1600F207720884008313800803190800720818
:100F26008400831300080A128A1163270A128A11A1
:100F3600882F8130831603138600031383129901C9
:100F4600031383129A010313831640309900031387
:100F560083162430980003138312903098000800FB
:100F6600F600F5010A128A116B270A128A11F4009B
:100F76000D3A0319CF2F7408F20075087607F300AF
:100F86007308840072088313800074080A128A1199
:100F960063270A128A11B52F75087607F2007208C0
:100FA60084008313800108000130F700770883125C
:100FB6000313AA000A128A119C270A128A112030EA
:100FC6000A128A11B3270A128A1120300A128A11CC
:100FD60075270A128A110330F9008A30F800563054
:100FE600F700F70BF42FF80BF42FF90BF42FFB2F68
:0A0FF600E22F83010A128A11D72F9F
:02400E0072FF3F
:00000001FF
