:020000040000FA
:020000000C28CA
:040002000034003492
:08000800F0000308F10071088B
:080010008300F00E700E0900E0
:080018008501860107309F00FD
:1000200003138316850186018312A0012B20023061
:100030003C2028303C2006303C200F303C20013052
:100040003C202920572029202428861600008612CB
:100050000800FF3030281E303028053030280130AD
:10006000A100C730A2000130A300A20B3828A30BC7
:100070003528A10B3128003406123F200800A000CB
:10008000200E0F398600252020080F3986002520F4
:100090002D200800A000200E0F398600061625200E
:1000A00020080F398600061625202D20080048302C
:1000B0004A2065304A206C304A206C304A206F302C
:1000C0004A20C0303C204E304A2069304A207630E9
:1000D0004A2061304A206E304A2074304A2068300D
:1000E0004A2061304A206B304A2061304A2020305B
:1000F0004A203A304A202D304A2029304A20FC300C
:040100004A20080089
:02400E00613F10
:084200000000010002000300B0
:00000001FF
