:020000040000FA
:0800000000008A110A12122807
:08000800F0000308F1000A08F2
:10001000F20072088A0071088300F00E700E090069
:040020000034003474
:0C002400A201382001210030062101213A
:10003000003006210121013030200030062101214D
:100040009C30812083120313061502301B211B28CC
:10005000831203138C1E2828831203131A08080026
:10006000831203130C1E3028831203139900080017
:1000700083160313061183160313871707138312BE
:1000800003139901831203139A018316031340305B
:1000900099008316031324309800831203139030C1
:1000A00098008312031306110800A000A01D632806
:1000B000083A0319632800002008093A0319632845
:1000C00000000730A0072008303E30200800A01DA7
:1000D0000800063020050319080008000800A000E9
:1000E000A01D7D28083A0319632800002008093A5A
:1000F000031963280000093020082008303E302012
:100100000800A000A201A20A2008A1006430A002F9
:10011000031C0319832800002108A000A203220861
:100120006F20A201053005300530A0010530A20185
:10013000080082072D342D342D342D342D342D34E8
:100140002D342D342D342D342D342D342D342D34A7
:100150002D342D342D342D342D342D342D342D3497
:100160002D342D342D342D342D342D342D342D3487
:100170002D342D342D342D342D342D342D342D3477
:100180002D342D342D342D342D340D340A34543483
:1001900065347334743420344D34653473347334BB
:1001A0006134673465340D340A342D342D342D34E4
:1001B0002D342D342D342D342D342D342D342D3437
:1001C0002D342D342D342D342D342D342D342D3427
:1001D0002D342D342D342D342D342D342D342D3417
:1001E0002D342D342D342D342D342D342D342D3407
:1001F0002D342D342D342D342D342D342D342D34F7
:1002000000340D3030200A3030200800840004080B
:0E021000840A9920003A0319080030200729BB
:02021E00A80036
:1002200000000000A80B10290800A900FF300F21D2
:10023000A90B17290800AA00FF3015211521152147
:100240001521AA0B1D2908000030AB00861C0034C4
:10025000AB0A0A302B06031901340A308A110A123C
:06026000152126290034DF
:02400E00323F3F
:00000001FF
