:020000040000FA
:020000001A28BC
:040002000034003492
:08000800F0000308F1000A08F2
:10001000F200831203138C1D0C288C11831203131E
:1000200086168A11442072088A0071088300F00E37
:04003000700E090045
:0C0034001C201B287030831603138F0063
:1000400083120313860103179E019F018316031376
:10005000503086008312831203138C1136308312C2
:1000600003139400223083160313930083160313A3
:100070009401831203139301831603138C158312C7
:1000800003130B178B1708008316031314082D395D
:1000900083120313A000831203132008093A031DDF
:1000A000582883120313130883120313A1000800B6
:1000B000831203132008293A031D652883120313B2
:1000C000130883120313A1000800831203132008EE
:1000D0002C390D3A031D6D280800831203132008E4
:0A00E0002C3A031D742808000800E4
:02400E00E4309C
:084200000000010002000300B0
:00000001FF
