:060000000A128A11122809
:10000800FE00030EF0000408F1000A08F200831253
:1000180003137F08F3000A128A11E2280A128A11D0
:100028001528F601F701F80183010A128A111C2824
:1000380083120313A901E830A4000330A5000A3095
:10004800A2002208A8000130A6000030A700AA01DB
:10005800AB010A128A1101210A128A1183120313B1
:10006800071106118B17810183120313A908031DB9
:1000780063280030861801300A128A11BD200A123E
:100088008A11003A03196328831203130615A9017C
:10009800A90A0130AA070318AB0A0030AB072B08DE
:1000A800803AFF0080307F02031D5C2804302A025A
:1000B800031C742883120313AA01AB01742883124A
:1000C800031306110030861801300A128A11BD2068
:1000D8000A128A110038031D742883120313A90118
:1000E800F61C38288312031307152B082A04031D4E
:1000F80087280430A3003D30A200A20B8128A30B5F
:1001080081288628B8280130831203132A062B0475
:10011800031D97280730A3007D30A200A20B922868
:10012800A30B9228B8280230831203132A062B0443
:10013800031DA8280A30A300BC30A200A20BA228E5
:10014800A30BA2280000B8280330831203132A0641
:100158002B04031DB8280D30A300FB30A200A20B0E
:10016800B328A30BB328B828831203130711F6107A
:10017800382883120313A000A101A0080319D3286B
:10018800E0280730F5007D30F400F40BC928F50BA2
:10019800C9280130F400740883120313A107A008CA
:1001A800031DDA280A302102031CC52821080A3A4F
:1001B800031DE02801300800003008008B1A0B1DD1
:1001C800F6280B11810176140130F7070318F80A95
:1001D8000030F807643077067804031DF628F61413
:1001E800F701F8017308FF0072088A00710884009B
:1001F800700E8300FE0E7E0E090006308316031370
:100208009F00870183120313870183160313860156
:1002180086148312031386018316031381120112B5
:0C02280081110110811001118B160800DB
:02400E0072FF3F
:00000001FF
