:020000040000FA
:0800000000008A110A12122807
:08000800F0000308F1000A08F2
:10001000F20072088A0071088300F00E700E090069
:040020000034003474
:0C002400000035202420861C2C28000041
:10003000831203131F151F191B28831203131E0895
:1000400083120313950015280C3083120313A100AB
:100050008312031386000800183083120313A106CD
:100060002108831203138600080083120313A101E1
:100070008312031386018316E33086008312FF3058
:100080008316031392001430831203139500831612
:100090000313071105308312031392003C308312BF
:1000A000031397008316031305140E3083160313EE
:1000B0009F008130831203139F00000000000000A6
:0600C00000000000080032
:02400E00323F3F
:00000001FF
