:020000040000FA
:020000000E28C8
:040002000034003492
:08000800A00003088312A1000F
:0C001000831221088300A00E200E0900BE
:04001C008601031343
:10002000831686018312A5016020033086003120EB
:1000300062200330860031206420033086003120A6
:1000400062200230860031206220233035200E30BD
:100050003520013035205E205E20483045205E206E
:100060003028061600000612080086123A20080002
:1000700045200800A500250E0F39860031202508EF
:100080000F398600312062200800A500250E0F39A7
:1000900086168600312025080F3986168600312005
:1000A0006220080083168617831286128614861B28
:1000B000572886108316861383120800FF306528A0
:1000C0001E306528053065280130A200C730A30026
:1000D0000130A400A30B6D28A40B6A28A20B66288C
:1000E000003448304520653045206C3045206C3068
:1000F00045206F304520C03045204E3045206930C6
:10010000452076304520613045206E3045207430E2
:10011000452068304520613045206B3045206130F6
:100120004520203045203A3045202D3045202930CB
:080130004520FC3045200800C9
:02400E00313F40
:00000001FF
