:020000040000FA
:020000000C28CA
:040002000034003492
:08000800F0000308F10071088B
:080010008300F00E700E0900E0
:0800180086018501861783169D
:100020005730620086018501861783127F30860073
:1000300007309F00A4010930A50085100511F43098
:10004000A6007F308600011D2328861F1A28240859
:10005000542086008510051501192C28861F1A28A2
:10006000011D3028861F1A28250854208600851473
:10007000051101193928861F1A287F308600A60B22
:100080002328A503A40A0A302406031D23281A28BE
:10009000A20181010108FA3A031D4A28A20A7D3013
:1000A0002206031D49280800820710347C342234BC
:0E00B00028344C34093401341C3400340C3430
:02400E00613F10
:084200000000010002000300B0
:00000001FF
