:020000040000FA
:020000000E28C8
:040002000034003492
:08000800A00003088312A1000F
:0C001000831221088300A00E200E0900BE
:04001C0085018601D3
:1000200003138316850186018312A5012B2002305C
:100030003C2028303C2006303C200F303C20013052
:100040003C202920572029202428061600000612CB
:100050000800FF3030281E303028053030280130AD
:10006000A200C730A3000130A400A30B3828A40BC2
:100070003528A20B3128003486123F200800A50045
:10008000250E0F398600252025080F3986002520EA
:100090002D200800A500250E0F3986008616252084
:1000A00025080F398600861625202D2008004830A7
:1000B0004A2065304A206C304A206C304A206F302C
:1000C0004A20C0303C204E304A2069304A207630E9
:1000D0004A2061304A206E304A2074304A2068300D
:1000E0004A2061304A206B304A2061304A2020305B
:1000F0004A203A304A202D304A2029304A20FC300C
:040100004A20080089
:02400E00313F40
:00000001FF
