:020000040000FA
:02000000922844
:040002000034003492
:08000800F0000308F10071088B
:080010008300F00E700E0900E0
:08001800831683160313860111
:10002000831277200330860046207B200330860031
:1000300046207F200330860046207F200230860045
:10004000462028302A2006302A200C302A20013071
:100050002A2008008612A100210E0F3986004620B2
:1000600021080F39860046204A200800C0302A2087
:100070000800A100210E0F398600861646202108AF
:100080000F398600861646204A2008000616000012
:1000900006120800861283168615831206170616A6
:1000A000861950280612061383168611831208003B
:1000B000A2008612061384302A2086164A202208BF
:1000C0006A203920080002302A204A200800013026
:1000D0002A20080082073034313432343334343447
:1000E00035343634373438343934FF3080281E30D4
:1000F00080280F3080280530802803308028013088
:10010000A400C730A5000130A600A50B8828A60BC7
:100110008528A40B81280034A70000000000A70B4D
:040120008D2808001E
:0C01240007309F000C20A0014130392062
:10013000200858207520A00A0A3020060319A001C3
:100140000000982882073034313432343334343468
:0A015000353436343734383439348E
:02400E00613F10
:084200000000010002000300B0
:00000001FF
