:020000040000FA
:020000000C28CA
:040002000034003492
:08000800F0000308F10071088B
:080010008300F00E700E0900E0
:0800180007309F00A3018601DF
:100020008101831686010030810083127220E62050
:10003000E6202620342001308B20AB20632097203F
:10004000C420E620E620E620E6201A28E620E62066
:1000500008008316051083120510EA20EA20EA2022
:10006000EA20000005140800F301F201A301292091
:100070008316051483128101051C3C2805183E28AF
:10008000283001020318031946284828003049285F
:1000900001300139F20DF207F30A07307306031D30
:1000A0003B287208A4008316051083120800810102
:1000B0000518582828300102031803194628482833
:1000C0000034013408002408F200F401F40A0A3074
:1000D000F202031C03196628F40374080F39DB20AD
:1000E0009A200800E82003308600A720EA20033089
:1000F0008600A720EC2003308600A720EC200230E9
:100100008600A72028308B2006308B200C308B20D7
:1001100001308B2008008612A300230E0F398600C1
:10012000A72023080F398600A720EA200800C03046
:100130008B200800A300230E0F3986008616A72007
:1001400023080F3986008616A720EA200800061625
:1001500000000612080054309A2065309A206D3055
:100160009A2070309A2065309A2072309A2061303F
:100170009A2074309A2075309A2072309A20653017
:100180009A203A309A20080052309A202E309A2035
:1001900048309A2075309A206D309A2069309A2024
:1001A00064309A2069309A2074309A2079309A20ED
:1001B0003A309A20080082073034313432343334F4
:1001C000343435343634373438343934FF30ED286C
:1001D0001E30ED280530ED280130A000C730A10009
:1001E0000130A200A10BF528A20BF228A00BEE28EB
:0201F0000034D9
:02400E00613F10
:084200000000010002000300B0
:00000001FF
