:020000040000FA
:020000001A28BC
:040002000034003492
:08000800F0000308F1000A08F2
:10001000F20083120313A10A6830831203138100D4
:10002000831203130B1172088A0071088300F00E0B
:04003000700E090045
:0C003400422000308312031387000030CC
:10004000831203132106031D2B2800000F30831297
:10005000031387001F280630831203132106031D94
:100060003728000000308312031387001F28283030
:10007000831203132106031D1F280000831203139C
:10008000A1011F286030831603138F00831203130E
:10009000870103179E0183160313870183128312BE
:1000A0000313A0018316031380308100831203130E
:1000B000A0308B0083120313A101003083120313BD
:0C00C000A20068308312031381000800C6
:02400E00E4309C
:084200000000010002000300B0
:00000001FF
