:020000040000FA
:020000000E28C8
:040002000034003492
:08000800A00003088312A1000F
:0C001000831221088300A00E200E0900BE
:04001C0083128601C4
:10002000850185150515831686018501851505153C
:1000300001309F00831251309F005730620003301F
:1000400085008617A601A701AA01A901A801F7301A
:10005000AB001F151F192A281E08A600A600AA0A11
:100060002608A2006430A602031C03192F282208C8
:10007000A600A90A2608A2000A30A602031C03193A
:1000800039282208A600A80A2608A2000130A602E4
:10009000031C031943282208A600AA03A903A803E6
:1000A0002A08A7000030A600290EF039A60028086B
:1000B0000F39A607011D5A280230850026080F397E
:1000C0008D208600011962287F308600011D662878
:1000D00001308500260E0F398D20860001196E280B
:1000E0007F308600011D72280330850027088D208F
:1000F0008600011979287F308600AB0B5A28222808
:10010000A40181010108FA3A031D8228A40A7D3066
:100110002406031D812808002228820740347C34ED
:10012000223428341C34093401344C3400340C3467
:02400E00313F40
:00000001FF
